:020000040000FA
:1000000018F09FE518F09FE518F09FE518F09FE5C0
:1000100018F09FE50000A0E1F0FF1FE518F09FE554
:1000200058000000400000000829000048000000BF
:100030004C000000000000005000000054000000D0
:10004000FEFFFFEAFEFFFFEAFEFFFFEAFEFFFFEA18
:10005000FEFFFFEAFEFFFFEA94009FE5AA10A0E37F
:100060005520A0E32430A0E3043080E50130A0E374
:10007000003080E50C1080E50C2080E5083090E52C
:10008000013B13E2FCFFFF0A0330A0E3003080E5F0
:100090000C1080E50C2080E558009FE50410A0E3DB
:1000A000041080E50210A0E3001080E548009FE501
:1000B000DBF021E300D0A0E1080040E2D7F021E32B
:1000C00000D0A0E1080040E2D1F021E300D0A0E19F
:1000D000080040E2D2F021E300D0A0E1030C40E2AE
:1000E000D3F021E300D0A0E1030C40E20C009FE537
:1000F00010FF2FE180C01FE000C01FE0603D004006
:1001000004010000000000EB3B0000EB2C008FE23C
:10011000000C90E800A08AE000B08BE001704AE299
:100120000B005AE10000001A330000EB0F00BAE8A0
:1001300018E04FE2010013E303F0471013FF2FE133
:10014000502900007029000001C08FE21CFF2FE140
:100150008A18037801305C07640F01D104780130FC
:100160001D1101D105780130013C05D00678013020
:100170000E700131013CF9D11E0706D42E1C0ED0A1
:10018000013E8C55FCD1491909E0047801300C1B63
:100190000135267801340E700131013DF9D59142C7
:1001A000D7D370470030B0E30040B0E30050B0E375
:1001B0000060B0E3102052E27800A128FCFFFF8A23
:1001C000822EB0E13000A128003081451EFF2FE1D2
:1001D00001C08FE21CFF2FE11FB5059886460FBCBA
:1001E000009C02B07047000001C08FE21CFF2FE1AD
:1001F00030B47546AE4630BC70470000820900EB53
:100200000210A0E1F1FFFFEB1CC09FE50FC08CE0E6
:1002100001001CE30DE08F120FE0A0011CFF2FE195
:1002200001C08FE21CFF2FE102F020FBE10400007F
:100230007847C04603002DE9EAFFFFEB0300BDE865
:10024000910900EB0C009FE50C109FE504209FE551
:1002500008309FE51EFF2FE140370040483A00403C
:100260004037004001002DE900204DE90000A0E1E9
:1002700004D04DE20100BDE8004020E900E0A0E12B
:100280000100BDE8FF7F4EE90000A0E13CE04EE246
:1002900000004FE101002EE94C009FE5000090E5D1
:1002A00001002EE944009FE5001090E500E081E5A3
:1002B0003C009FE50FE0A0E110FF2FE12C009FE53F
:1002C000000090E500E090E51C009FE50200BEE81C
:1002D000001080E50100BEE800F06FE1FF7FDEE87E
:1002E0000000A0E13CE09EE504F05EE21C0100405D
:1002F000D80000400509000000205BE041004118E3
:10030000514A515C002902D0012950D127E0410017
:1003100041184D4A8918897800290CD14B498968C0
:1003200042008218484BD218537801229A409143D8
:10033000464A916012E041004118434A8918897881
:1003400001290BD141498968420082183E4BD218DD
:10035000537801229A4011433C4A916028E04100C1
:100360004118394A8918897800290CD13749896997
:1003700042008218344BD218537801229A4091439C
:10038000324A916112E0410041182F4A8918897858
:1003900001290BD12D498969420082182A4BD218B4
:1003A000537801229A401143284A916100E0C046E7
:1003B000C046401C2649098888429FDB70470200DE
:1003C000002A02D0012A0CD105E0204B1B68CB404B
:1003D000D807C00F05E01D4B1B69CB40D807C00FE5
:1003E000C046C046704710B4002802D0012827D16B
:1003F00013E0002A07D1154BDB6801248C4023430E
:10040000124CE36008E0012A06D1104B5B6801241E
:100410008C4023430D4C636012E0002A07D10B4B44
:10042000DB6901248C402343084CE36108E0012A86
:1004300006D1064B5B6901248C402343034C636166
:10044000C04610BC7047000000000040008002E081
:100450005A00004082B00024C046C04600F089FB2C
:100460000190C046C54DC64E0A21C648006801F03D
:10047000ECFC10210020FFF7A2FF012807D1002388
:100480001A002900C048006801F0EAFA06E00023DB
:100490001A003100BC48006801F0E2FA002407E0CD
:1004A000C04601E0C046641CB8488442FAD9641CC6
:1004B0007D20C0008442F3D900231A001900B148FE
:1004C000006801F0CDFA002212211000FFF78BFF27
:1004D000642101A800F03EFD012212210020FFF757
:1004E00082FF002213211000FFF77DFFBAE782B0E0
:1004F0000024C046C04600F03CFB0190C046A44D1D
:10050000A44E0A219F48006801F09FFC11210020A1
:10051000FFF755FF012807D100231A0029009A4848
:10052000006801F09DFA06E000231A0031009648A9
:10053000006801F095FA002407E0C04601E0C046DB
:10054000641C92488442FAD9641C93488442F4D9CA
:1005500000231A0019008B48006801F081FA00227C
:1005600014211000FFF73FFF642101A800F0F2FC06
:10057000012214210020FFF736FF00221221100073
:10058000FFF731FF002213211000FFF72CFFB6E721
:1005900082B00024C046C04600F0EBFA0190C0468D
:1005A0007E4D0A217748006801F04FFC00231A00B5
:1005B00029007548006801F053FA002407E0C0469E
:1005C00001E0C046641C71488442FAD9641C744836
:1005D0008442F4D900231A0019006A48006801F027
:1005E0003FFA002215211000FFF7FDFE322101A87D
:1005F00000F0B0FC012215210020FFF7F4FE0022DC
:1006000014211000FFF7EFFE002212211000FFF767
:10061000EAFE002213211000FFF7E5FEC0E782B0DA
:100620000024C046C04600F0A4FA0190C0465D4DCB
:1006300032215448006801F008FC00222900524889
:10064000006801F07EFB1421280000F031F900243D
:1006500007E0C04601E0C046641C4C488442FAD919
:10066000641C7D2040018442F3D900231A00190044
:100670004448006801F0F4F9002216211000FFF749
:10068000B2FE322101A800F065FC012216210020F3
:10069000FFF7A9FE002215211000FFF7A4FE00229B
:1006A00014211000FFF79FFE002212211000FFF717
:1006B0009AFE002213211000FFF795FEB7E710B550
:1006C000012213210020FFF78EFE002213211000CB
:1006D000FFF789FE10BC08BC184710B5E1204002A6
:1006E00000F094F8FFF708FE01202F49087010BCB5
:1006F00008BC184784B0FFF7F0FF012001F054FA5E
:100700002049086000221421080001F0B4F81E49B5
:100710000860642025490222002300920191029082
:10072000020023A1264800F02FFA64202549012267
:100730000023009201910290020023A1264800F0BC
:1007400023FA3220254903220023009201910290CE
:10075000642223A1254800F017FA322024490422FC
:100760000023009201910290642222A1264800F009
:100770000BFA00F0CFFDC046FEE700007400004019
:10078000880000405C0000406000004060EA00001B
:100790009C000040B000004028230000C40000403E
:1007A000881300003801004000C11FE064000040D1
:1007B000427574746F6E5F31207461736B0000005A
:1007C0005504000068000040427574746F6E5F321B
:1007D000207461736B000000EF0400006C000040A7
:1007E0006E6F726D616C207461736B009105000017
:1007F00070000040554152542053656E64696E6725
:10080000207461736B0000001F06000070B50500C6
:100810005A48006801210904084358490860080043
:100820000068012189040843544908602E01310001
:10083000534802F037F804005248007B80210843F7
:10084000504908730C70240A0C71072008720320A9
:1008500008734814C068802188434B49C860080069
:100860000069802108434849086148484849486070
:1008700027204849486043480079032108434149FB
:10088000087170BC08BC1847010043480078012873
:1008900009D10020404A1070404800780006001638
:1008A0000870012070470020FCE7364A107070473E
:1008B00070B505000C003A480078002820D1002DC2
:1008C0001ED038490C7036490C70002303E0E85CF8
:1008D0003549C8545B1CA342F9DB31490A780978D1
:1008E000491E2F4E31702F490978891A2E4A515CC2
:1008F00009060816FFF7D9FF012070BC08BC18478D
:100900000020FAE710B41F4A107A2EE00207120FF7
:10091000022A0BD0042A1CD0062A02D00C2A20D18D
:1009200016E0184A127D110609161BE01C4A1278BF
:10093000002A0CDD1A4A13781278521E184C2270C5
:10094000184A1278D21A184B9A5C0E4B1A7009E0AA
:10095000C0460C4A1278114B1A7001220E4B1A70C5
:1009600000E0C046C046074A107AC207D20F002AEC
:10097000CCD00022044B1A6310BC704700C002E0C8
:1009800000879303000001E000F0FFFF6402000015
:1009900000F1FFFF00F2FFFFCB000040CA00004063
:1009A000CD000040CC0000404C01004010B50024B8
:1009B00006E014216143FE4A881800F0BDFE641C65
:1009C000042CF6D3FB4800F0B7FEFB4800F0B4FE61
:1009D000FA4800F0B1FEFA4800F0AEFEF94800F027
:1009E000ABFEF94800F0A8FEF248F8490860F2486A
:1009F000F749086010BC08BC184710B5040001F0A6
:100A0000C7FCF4480068401CF2490860F2480068DE
:100A1000002808D1F04804600800006801280ED1C1
:100A2000FFF7C4FF0BE0ED480068002807D1EA4853
:100A30000068C06AE16A884201D8E7480460E84873
:100A40000068401CE6490860E649E06A0968884297
:100A500002D9E449E06A0860211DD94800F088FE07
:100A600001F0A1FCDD480068002807D0DA480068E2
:100A7000C06AE16A884201D201F0F0FF10BC08BCF4
:100A80001847FFB581B00E000A9F0C9C216B03989C
:100A9000401E8000081800900098C008C000009018
:100AA000002E11D0002508E0715D20003430415542
:100AB000705D002800D102E06D1C082DF4D3C04603
:100AC00000213B20015502E0002134200155042F74
:100AD00000D30327E762276400206064201D00F034
:100AE00038FE2000183000F034FE24610420C01BC2
:100AF000A0616462049A684603C801F0E1FB2060CB
:100B00000B98002801D00B98046005B0F0BC08BC1D
:100B10001847FFB585B01700B80001F090FC06003B
:100B2000002E0BD0482001F08AFC0400002C01D0DC
:100B3000266304E0300001F0D7FC00E00024002C24
:100B400010D000220EA803C86B4613C303923A00CC
:100B5000089B05A803C8FFF794FF2000FFF74DFF8F
:100B6000012501E00025ED43280009B0F0BC08BCD8
:100B7000184710B501F00CFC9B48046801F013FC09
:100B8000200010BC08BC1847FFB585B01700B8009E
:100B900001F055FC0600002E0BD0482001F04FFC60
:100BA0000400002C01D0266304E0300001F09CFC1E
:100BB00000E00024002C19D01098E063FFF7D9FF63
:100BC0000490E16B0498081860602000FFF715FF9F
:100BD00000220EA803C86B4613C303923A00089B79
:100BE00005A803C8FFF74DFF012501E00025ED43EF
:100BF000280009B0F0BC08BC1847744800680068B9
:100C0000002801D1012000E00020002804D00020AD
:100C1000C0437649086005E06C480068C068006819
:100C200072490860704710B50400206B01F05CFC4D
:100C3000200001F059FC10BC08BC184770B5050035
:100C400001F0A6FB002D02D16348006800E02800F7
:100C50000400201D00F0A8FDA06A002803D0200099
:100C6000183000F0A1FD5E480068401C5C49086037
:100C700059480068844209D1211D524800F06CFD9A
:100C80005B480068401C5A49086009E05148006808
:100C9000401E504908602000FFF7C5FFFFF7ADFF79
:100CA00001F081FB4D480068002805D04A480068E3
:100CB000844201D101F0D2FE70BC08BC1847FEB5D9
:100CC000002001904B48006800286FD1464800681A
:100CD000461C45480660002E11D13C480068009033
:100CE0003B48006839490860394900980860424823
:100CF0000068401C40490860FFF77FFFC0463B4842
:100D0000006886423ED3C04630480068006800282C
:100D100001D1012000E00020002804D00020C043C1
:100D2000324908602DE029480068C068C4686568D9
:100D3000AE4202D22D48056023E0FFF71AFF0700FC
:100D4000E8196060201D00F02FFDA06A002803D084
:100D50002000183000F028FD2249E06A0968884226
:100D600002D92049E06A0860211D154800F000FD05
:100D70001949E06A0968C96A8842C5D3012001900F
:100D8000C2E7C04614480068C06A142148430849B5
:100D90000858012801D9012001901848006800284E
:100DA00001D1FFF78CFC164800682BE02FE0000013
:100DB00028020040780200408C020040A00200405F
:100DC00014020040B4020040C8020040DC000040B1
:100DD000E0000040E8000040D8000040F40000407F
:100DE00004010040F0000040EC0000400801004019
:100DF000E40000401001004000010040F800004005
:100E0000FC000040002801D00120019006E0FE48CF
:100E10000068401CFC490860FFF751FC0198FEBCCB
:100E200008BC184770B50024002601F0B1FAF74855
:100E30000068401EF549086008000068002849D194
:100E4000F3480068002845D01EE0F248C068C46836
:100E50002000183000F0A8FC201D00F0A5FCEE4991
:100E6000E06A0968884202D9EB49E06A0860211DFE
:100E7000EA4800F07DFCEA49E06A0968C96A8842EC
:100E800002D30120E7490860E2480068002801D148
:100E9000012000E000200028D7D0002C01D0FFF76F
:100EA000ACFED9480568002D0DD0C046FFF707FFFE
:100EB000002802D00120DB4908606D1E002DF5D10D
:100EC0000020D1490860D7480068002802D00126D8
:100ED00001F0C4FD01F067FA300070BC08BC18478F
:100EE000F8B505000E00D0480768CD480068001D21
:100EF00000F05AFC681C002808D1002E06D0C84813
:100F00000168091DC94800F027FC1AE07C19C44893
:100F100000684460BC4207D2C1480168091DC4484A
:100F2000006800F025FC0CE0BD480168091DC148BF
:100F3000006800F01DFCC0480068844201D2BE4831
:100F40000460F8BC08BC1847B0480068401CAF49B2
:100F500008607047F3B581B0040000200090FFF7EF
:100F6000F3FFB1480668216802980D182068B04266
:100F700007D92068A8420BD9B54209D901200090B1
:100F800006E02068A84201D8B54201D901200090AE
:100F900025600098002803D0A81B0021FFF7A0FFC0
:100FA000FFF740FF0700002F01D101F057FDFEBC05
:100FB00008BC184770B504000025002C08D0FFF7C6
:100FC000C3FF00212000FFF78BFFFFF72BFF050079
:100FD000002D01D101F042FD70BC08BC184770B56E
:100FE000040001F0D5F9002C02D18D48006800E022
:100FF00020000600F56A01F0D6F9280070BC08BC94
:10100000184710B401000023002902D1844C246841
:1010100000E00C002200D06A10BC7047FEB507004B
:101020000D0000200090042D00D3032501F0B0F93D
:10103000002F02D17A48006800E038000400266CD6
:10104000AE4245D0B5420BD97548006884420DD0F8
:1010500073480068C06AA84208D80120009005E0E3
:101060006F480068844201D101200090E06A01903D
:10107000E16A206C884200D1E5622564A069C00F56
:10108000C007002802D10420401BA061616914221E
:1010900001985043694A8018814201D1012000E043
:1010A000002000280ED0201D00F07EFB5A49E06A87
:1010B0000968884202D95849E06A0860211D5748EA
:1010C00000F056FB0098002801D001F0C7FCC04694
:1010D00001F069F9FEBC08BC18474C4800680028BC
:1010E00003D001204F49086007E000204D49086007
:1010F0004A48C068C0684A490860704770B5050032
:1011000001F046F9002D02D14548006800E02800B2
:101110000400201D00F048FBA06A002803D0200036
:10112000183000F041FB211D404800F015FB01F094
:101130003AF943480068002805D001F029F9FFF783
:101140005CFD01F030F936480068844212D13C4819
:101150000068002802D001F081FC0BE033480068F1
:101160002B490968884203D100202D49086001E01D
:10117000FFF7B3FF70BC08BC184710B40100002093
:101180000A002A4C5369A34201D1012300E0002345
:10119000002B11D01F4C936AA34201D1012300E020
:1011A0000023002B08D1936A002B01D1012300E01A
:1011B0000023002B00D0012010BC704770B5050043
:1011C0002C0017480068844240D0002C3ED001F02B
:1011D000DFF82000FFF7D1FF002835D0201D00F0F8
:1011E000E3FA0D49E06A0968884202D90A49E06ACF
:1011F0000860211D094800F0BBFA0949E06A096846
:10120000C96A884220D31DE0F80000401001004068
:10121000E8000040A0020040F0000040140200403E
:10122000D8000040FC000040EC000040C802004034
:10123000E0000040DC0000400801004028020040BF
:10124000F400004001F00AFC01F0ADF870BC08BCED
:101250001847F8B5050000262C0000272000FFF7EE
:101260008CFF00281FD0F7480068002816D1F649E7
:10127000E06A0968C96A884200D30126201D00F08F
:1012800093FAF249E06A0968884202D9EF49E06AB4
:101290000860211DEE4800F06BFA04E021001831CF
:1012A000EC4800F059FA3000F8BC08BC184710B5FB
:1012B00016E001F06DF8E848C068C468201D00F031
:1012C00073FAE6480068401EE4490860E448006894
:1012D000401EE349086001F066F82000FFF7A3FC18
:1012E000DF4800680028E4D110BC08BC1847C0469D
:1012F000FFF7DDFFDB480068012801D901F0AEFBF4
:10130000D348C068C5686E68FFF733FC0400301925
:101310006860EDE73EB56425D34800210B005A22F2
:1013200001AC21C40091D1A1D248FFF72DFC0400EB
:10133000012C0CD101F096FBA01ECF4908600120C2
:10134000CE4908600020CE49086001F017F83EBC85
:1013500008BC184710B501F085FB0020C74908609C
:1013600001F015F810BC08BC18470021C44A1068E9
:101370007047BA48006870470100002902D1B2489E
:10138000006800E00800020010003430704770B5BB
:101390000400FFF7D9FDBB4800680019B94908608F
:1013A000FFF740FD0500280070BC08BC184770B569
:1013B00005000C00A44801681831280000F0D8F995
:1013C00001212000FFF78CFD70BC08BC184770B5E8
:1013D00006000C0015000120C00720439A49096847
:1013E0008861994801681831300000F0B5F9012191
:1013F0002800FFF775FD70BC08BC184770B50600E3
:10140000F068C4682000183000F0CEF98D480068FC
:1014100000280FD1201D00F0C7F98C49E06A096847
:10142000884202D98949E06A0860211D884800F095
:101430009FF904E021001831864800F08DF98249B7
:10144000E06A0968C96A884204D9012501208E49E9
:10145000086000E00025280070BC08BC184770B583
:1014600005000E000120C00730432860EC6828000A
:1014700000F09AF9201D00F097F97449E06A0968B4
:10148000884202D97149E06A0860211D704800F065
:101490006FF96D49E06A0968C96A884202D901207A
:1014A0007949086070BC08BC184710B5040000F00A
:1014B0006FFF76480068206071480068606000F047
:1014C00072FF10BC08BC18477049096801606C497C
:1014D00009684160704770B506000C0000F058FFC5
:1014E000674802687068131A2068401C002801D100
:1014F000002519E0654930680968884206D070689F
:10150000904203D80125002020600DE02068984219
:1015100007D92068C01A20603000FFF7D5FF0025EA
:1015200002E000202060012500F03DFF280070BC93
:1015300008BC1847012054490860704742490868B0
:10154000704770B505002C000026002D3ED03E49A6
:10155000E06A0968C96A884231D2A069C00FC00731
:10156000002805D138480068C06A0421081AA06123
:101570001422E06A50433B4A80186169814201D1DC
:10158000012000E00020002813D0201D00F00CF9FD
:101590002D480068C06AE0622C49E06A0968884208
:1015A00002D92A49E06A0860211D294800F0E0F8C4
:1015B00003E025480068C06AE062012606E022498F
:1015C000206C0968C96A884200D20126300070BCCC
:1015D00008BC184770B505002C000026002D1FD050
:1015E000606C401E6064216CE06A884218D0606CB8
:1015F000002815D1201D00F0D7F8206CE0620421EE
:10160000E06A081AA0611149E06A0968884202D9B3
:101610000E49E06A0860211D0D4800F0A9F8012676
:10162000300070BC08BC1847FEB506000F0034003F
:1016300001200090002E59D0206CB84228D23D00E5
:1016400027E0000010010040D8000040F0000040FA
:1016500014020040A0020040B4020040E800004034
:10166000E4000040280200400C01004049444C4581
:1016700000000000EF12000008010040F4000040EC
:10168000EC000040F8000040FC0000400001004079
:10169000256CE06AA84229D0606C012826D1E06A56
:1016A0000190E562A069C00FC007002802D10420A4
:1016B000401BA06161691422019850431A4A8018A6
:1016C000814201D1012000E0002000280ED0201D21
:1016D00000F06AF81549E06A0968884202D913499E
:1016E000E06A0860211D124800F042F8FEBC08BC08
:1016F00018471049096888690E490968C96A0422AF
:10170000511A0C4A1268916170470A480068002813
:1017100006D00849096808004430496C491C01603A
:10172000044800687047000028020040F0000040B4
:1017300014020040D800004001000831416000213F
:10174000C943816001000831C1600161002101606D
:10175000704700210161704742684A6093688B605E
:10176000936859609160086103685B1C036070476F
:1017700010B402000B685C1C002C01D1106907E05A
:101780001000083000E04068446824689C42FAD9A0
:1017900044684C604C68A160886041600A611468CC
:1017A000641C146010BC704701000A694B688868AB
:1017B0009860081D09C858605068884201D188683F
:1017C0005060002008611068401E1060106870476B
:1017D00070B505000E002C0000F0DAFD216CE06B06
:1017E000484321684018A0600020A0632068606022
:1017F000E06B401E216C484321684118E1600021E4
:10180000C9434420015545200155002E10D12069BF
:10181000002801D1012000E00020002810D1200084
:101820001030FFF7EBFD00280AD001F017F907E0B0
:1018300020001030FFF780FF20002430FFF77CFFEE
:1018400000F0B1FD012070BC08BC1847F8B50600D7
:101850000D001700069C002D01D1246000E02760D8
:10186000E663256401212000FFF7B2FF0020A06499
:10187000F8BC08BC1847FEB505000E00170028008C
:1018800070430290029908004C3000F0D8FD04002B
:10189000002C0BD00194019C20004C3001903B00A7
:1018A000009431002800019AFFF7D0FF2000FEBC11
:1018B00008BC1847F8B504000F0015000020009080
:1018C000A66B206C002809D1206800282ED1A068C2
:1018D000FFF780FE00900020A06027E0002D0FD1D0
:1018E0003900226C606800F02FFE216C606840189F
:1018F0006060A1686068884218D32068606015E065
:101900003900226CE06800F01FFE216CE068411A8B
:10191000E1602168E068884203D2216CA068411A26
:10192000E160022D02D1002E00D0761E701CA06353
:101930000098F8BC08BC1847F1B50098846C0026E4
:10194000A06BE16B884220D24520055700226946F2
:101950002000FFF7AFFF0600681C00280FD1606A67
:10196000002801D1012000E0002000280CD1200037
:101970002430FFF743FD002806D0012604E0681C50
:101980000106091645200155C0463000F8BC08BCC8
:10199000184770B5040000F0FBFC452005571FE018
:1019A000A06C002807D02000FFF7C6FF002814D045
:1019B000FFF7C0FD11E0606A002801D1012000E0BE
:1019C0000020002808D120002430FFF717FD002850
:1019D00003D0FFF7AFFD00E004E0681E0006051627
:1019E000002DDDDCC0460021C9434520015500F033
:1019F000DAFC00F0CDFC4420055714E020690028F3
:101A000001D1012000E0002000280BD1200010307F
:101A1000FFF7F4FC002801D0FFF78CFD681E0006DC
:101A2000051600E001E0002DE8DCC0460021C943B6
:101A30004420015500F0B7FC70BC08BC184770B5D5
:101A4000050000F0A5FCA86BE96B884201D10124D8
:101A500000E0002400F0A7FC200070BC08BC184780
:101A6000FFB585B007001D00002004903C00C04673
:101A700000F08EFCA06BE16B884201D3022D33D1C4
:101A8000A06B01902A0020000699FFF713FF0600C3
:101A9000A06C00280CD0022D02D1019800281CD186
:101AA0002000FFF749FF002817D000F0D7FF14E00F
:101AB000606A002801D1012000E00020002808D140
:101AC00020002430FFF79AFC002806D000F0C6FF63
:101AD00003E0002E01D000F0C1FF00F064FC012003
:101AE00009B0F0BC08BC18470798002803D100F0E3
:101AF0005AFC0020F4E70498002804D102A8FFF75C
:101B0000E3FC0120049000F04EFCFFF71DFA00F00A
:101B10003FFC44210857401C002802D100214420EA
:101B2000015545210857401C002802D100214520BD
:101B3000015500F038FC07A902A8FFF7CCFC0028EB
:101B400019D12000FFF77BFF00280ED020001030B5
:101B50000799FFF72CFC2000FFF71BFFFFF762F946
:101B6000002885D100F07AFF82E72000FFF711FFFF
:101B7000FFF758F97CE72000FFF70BFFFFF752F95A
:101B80000020ADE710B50400002C0AD00020A060B2
:101B900020600021E16000231A0019002000FFF7F7
:101BA0005FFF10BC08BC1847F8B5040001260027E9
:101BB000220000210120FFF75EFE05002800FFF74C
:101BC000E1FF2800F8BC08BC1847FFB585B0060047
:101BD00015001F00340000200390A06BE16B8842C9
:101BE00001D3022F3BD1452001570291A06B0190F8
:101BF0003A0020000699FFF75DFE0298401C00287D
:101C000024D1A06C00280ED0022F02D10198002808
:101C100022D12000FFF790FE00281DD0002D1BD000
:101C20000120286018E0606A002801D1012000E04E
:101C30000020002810D120002430FFF7DFFB00280F
:101C40000AD0002D08D00120286005E00298401C31
:101C500001060916452001550120049001E00020ED
:101C60000490049809B0F0BC08BC1847FEB5060003
:101C70000D00340000200290A06B0190E16B0198F0
:101C8000814231D94520015700910198401CA06341
:101C90000098401C00281FD1A06C002809D020000B
:101CA000FFF74AFE00281DD0002D1BD00120286020
:101CB00018E0606A002801D1012000E0002000281F
:101CC00010D120002430FFF799FB00280AD0002D06
:101CD00008D00120286005E00098401C0106091684
:101CE00045200155012700E000273800FEBC08BC54
:101CF000184770B5050000F04BFBA86B002801D118
:101D0000012400E0002400F04EFB200070BC08BC61
:101D1000184770B504000D00206C00280ED0216C0F
:101D2000E0684118E160A168E068884201D3216859
:101D3000E1602800226CE16800F006FC70BC08BC81
:101D40001847F7B582B0050000272C00C04600F008
:101D50001FFBA66B002E1CD020000399FFF7D9FFB4
:101D6000701EA0632069002801D1012000E000203E
:101D7000002807D120001030FFF740FB002801D0D9
:101D800000F06CFE00F00FFB012005B0F0BC08BCB9
:101D900018470498002803D100F005FB0020F4E761
:101DA000002F03D16846FFF78FFB012700F0FBFAF5
:101DB000FFF7CAF800F0ECFA44210857401C00284D
:101DC00002D100214420015545210857401C00281C
:101DD00002D100214520015500F0E5FA04A968462A
:101DE000FFF779FB002819D12000FFF782FF0028B8
:101DF0000ED0200024300499FFF7D9FA2000FFF715
:101E0000C8FDFFF70FF80028A1D100F027FE9EE7DC
:101E10002000FFF7BEFDFFF705F898E72000FFF769
:101E2000B8FDFEF7FFFF2000FFF763FF00288ED00C
:101E30000020AAE701004A6A002A04D00A6B12684F
:101E40000423981A00E000207047F3B583B0050022
:101E500000272C0000200090C04600F099FAA66BE5
:101E6000002E1ED0701EA0632068002802D1FFF74C
:101E70004CFCA0602069002801D1012000E0002076
:101E8000002807D120001030FFF7B8FA002801D051
:101E900000F0E4FD00F087FA012005B0F0BC08BCBA
:101EA00018470498002803D100F07DFA0020F4E7D9
:101EB000002F03D101A8FFF707FB012700F073FAF9
:101EC000FFF742F800F064FA44210857401C00284C
:101ED00002D100214420015545210857401C00280B
:101EE00002D100214520015500F05DFA04A901A8A6
:101EF000FFF7F1FA002824D12000FFF7FAFE0028AE
:101F000019D02068002807D100F042FAA068FFF736
:101F100018FB009000F047FA200024300499FFF7E6
:101F200046FA2000FFF735FDFEF77CFF002894D12C
:101F300000F094FD91E72000FFF72BFDFEF772FF04
:101F40008BE72000FFF725FDFEF76CFF2000FFF771
:101F5000D0FE002881D0009800280BD000F018FA9D
:101F60002000FFF767FF06003100A068FFF75CFB69
:101F700000F019FA002090E7F7B584B005000027BB
:101F80002C00C04600F004FAA06B019001980028D4
:101F90001CD0E66820000599FFF7BBFEE660606A8A
:101FA000002801D1012000E00020002807D12000F6
:101FB0002430FFF723FA002801D000F04FFD00F095
:101FC000F2F9012007B0F0BC08BC184706980028B9
:101FD00003D100F0E8F90020F4E7002F03D102A8B4
:101FE000FFF772FA012700F0DEF9FEF7ADFF00F00F
:101FF000CFF944210857401C002802D10021442079
:10200000015545210857401C002802D100214520D8
:10201000015500F0C8F906A902A8FFF75CFA0028EC
:1020200019D12000FFF765FE00280ED020002430D3
:102030000699FFF7BCF92000FFF7ABFCFEF7F2FEB4
:1020400000289FD100F00AFD9CE72000FFF7A1FCCB
:10205000FEF7E8FE96E72000FFF79BFCFEF7E2FEA6
:102060002000FFF746FE00288CD00020AAE7F7B535
:1020700084B0050016002C0000200390A06B029095
:102080000298002828D0442001570191200005998A
:10209000FFF73FFE0298401EA0630198401C0028F5
:1020A00012D12069002801D1012000E00020002881
:1020B00010D120001030FFF7A1F900280AD0002E1F
:1020C00008D00120306005E00198401C0106091687
:1020D00044200155012700E00027380007B0F0BC7C
:1020E00008BC1847F3B581B005002C000020009013
:1020F000A06B002807D0E76820000299FFF709FECF
:10210000E760012600E000263000FEBC08BC18474E
:1021100070B5040000F03CF9A56B00F044F928000C
:1021200070BC08BC184770B50400250000F030F9F9
:10213000A96BE86B461A00F036F9300070BC08BC99
:10214000184701000A00906B704710B4010000208E
:102150000EE0C200594BD21852688A4207D10022C1
:10216000C300564CE250C3001B195A6002E0401CE9
:102170000028EED0C04610BC704770B504002500A2
:102180002800FFF7E2FF280000F0AEF970BC08BCA1
:10219000184701000A00936B002B01D1012000E0D9
:1021A0000020704710B401000A00936BD46BA34267
:1021B00001D1012000E0002010BC704710B40200E3
:1021C00000200BE0C3003D4CE358002B05D1C300B9
:1021D000E150C3001B195A6002E0401C0028F1D0F6
:1021E000C04610BC704710B402000020002109E076
:1021F000CB00324C1B195B68934202D1CB00E058F4
:1022000002E0491C0029F3D0C04610BC704770B5ED
:102210000400002204212000FFF72DFB0500280008
:1022200070BC08BC184770B504000E0000F0B0F890
:10223000A06C002801D0002506E0A06B002801D08A
:10224000002501E0A664012500F0ADF8280070BC6F
:1022500008BC1847F8B505000F002E00B06CB84256
:1022600001D000240BE0B06B002801D0002406E070
:1022700000F08EF80020B06400F095F801242000F2
:10228000F8BC08BC184738B505000C0000200090C9
:10229000220069462800FFF754FD009838BC08BCAE
:1022A000184738B50400002000900022694620003D
:1022B000FFF7DDFE009838BC08BC18471401004049
:1022C00030B40300001F0C1D0460001F3F4C04606D
:1022D000001F0360001F3E4C0460001F3D4C046063
:1022E000001F3D4C0460001F3C4C0460001F3C4C30
:1022F0000460001F3B4C0460001F3B4C0460001F47
:102300003A4C0460001F3A4C0460001F394C0460D2
:10231000001F394C0460001F64100460001F02603D
:10232000001F1F240460CC07E40F002C03D02025DD
:1023300004682C430460001F0024046030BC704714
:1023400000212E4AD1602E4811008861032151617D
:102350005114C968102291432A4AD16011000969B9
:1023600010221143274A11612749284A116024216C
:10237000274A11600121214A5160704710B5FFF7CB
:10238000DFFF00F0A3FA002010BC08BC184770471C
:1023900010B500F067FB1F480068401C1D4908602D
:1023A00010BC08BC184710B51A48006800280AD0AD
:1023B00018480068401E1749086008000068002897
:1023C00001D100F05BFB10BC08BC1847AAAAAAAA5E
:1023D000121212121111111110101010090909090D
:1023E0000808080807070707060606060505050585
:1023F000040404040303030302020202004000E099
:10240000C027090000F0FFFF9429000000F1FFFF42
:1024100000F2FFFF1C010040454AD008C000454AB9
:1024200010600022434B5A60434A444B5A600022DA
:102430001A600100404A4A601A000A607047F8B505
:10244000040000200090FEF77FFD3D480068002852
:1024500004D1FFF7E1FF012039490860002C09D0C1
:1024600008346007400F002804D06007400F08219F
:10247000081A0419002C31D02F4884422ED22D4F37
:102480003800056801E02F002D686868A04202D27C
:1024900028680028F7D1294885421FD038680830BD
:1024A0000090286838606868001B102810D92E1921
:1024B0006868001B70606C6071681E4800E000680E
:1024C000026852688A42FAD3026832600660C046E7
:1024D0001C4968680968081A1A490860FEF7A2FCD6
:1024E0000098F8BC08BC184770B506003500002EEF
:1024F00016D0083D2C00FEF727FD61680D4800E06E
:102500000068026852688A42FAD302682260046056
:102510000C496068096840180A490860FEF782FCA7
:1025200070BC08BC18470748006870477047000037
:10253000E402004020010040F83300002801004080
:1025400034010040300100407847C046030052E3A8
:102550002A00009A03C010E20800000A0130D1E40A
:1025600002005CE30C2082E001C0D1940130C0E4A1
:102570000130D13401C0C094042042E20130C034A3
:10258000033011E28700000A042052E21B00003AE7
:1025900003C031E7020053E30800000A0F00008A7D
:1025A0002C34A0E104C0B1E5042052E20C3C83E1EC
:1025B000043080E4F9FFFF2A011081E20F0000EAF5
:1025C0002C38A0E104C0B1E5042052E20C3883E1CC
:1025D000043080E4F9FFFF2A021081E2070000EADC
:1025E0002C3CA0E104C0B1E5042052E20C3483E1AC
:1025F000043080E4F9FFFF2A031081E20000A0E12B
:10260000822FB0E10130D12401C0D1240120D14476
:102610000130C02401C0C0240120C0441EFF2FE1AE
:10262000013090E12100004A0020B0E3A03071E0C9
:102630001A00003A203271E00F00003A203471E0B5
:102640000100003A00C0A0E3200000EAA03371E0DE
:10265000810340200220B2E0203371E001034020DA
:102660000220B2E0A03271E0810240200220B2E0FC
:10267000203271E0010240200220B2E0A03171E07E
:10268000810140200220B2E0203171E001014020B0
:102690000220B2E0A03071E0810040200220B2E0D0
:1026A000011050E00010A0310200A2E01EFF2FE157
:1026B000022111E20010614240C032E000006022BD
:1026C000203271E01D00003A203471E00F00003A22
:1026D0000113A0E1203471E03F2382E30B00003AB4
:1026E0000113A0E1203471E03F2682E30700003AA5
:1026F0000113A0E1203471E03F2982E30113A021FE
:102700003F2C8223003071E21D00002A2113A021FA
:10271000A03371E0810340200220B2E0203371E059
:10272000010340200220B2E0A03271E0810240208B
:102730000220B2E0203271E0010240200220B2E02B
:10274000A03171E0810140200220B2E0203171E02F
:10275000010140200220B2E0EBFFFF2AA03071E02F
:10276000810040200220B2E0011050E00010A031B2
:102770000200A2E0CCCFB0E1000060420010612274
:102780001EFF2FE1CCCFB0E10000604201402DE9F7
:102790000000B0E30000A0E10240BDE81EFF2FE111
:1027A000704770477047000010402DE9202052E22A
:1027B0000500003A1850B1E8202052E21850A0E875
:1027C0001850B1E81850A0E8F9FFFF2A02CEB0E196
:1027D0001850B1281850A0281800B1481800A04877
:1027E0001040BDE802CFB0E10430912404308024D1
:1027F0001EFF2F01822FB0E1B230D1200120D14441
:10280000B230C0200120C0441EFF2FE10E50A0E1D5
:102810001A0000EB05E0A0E10050B0E10D10A0E1CE
:102820000A30A0E10700C0E300D0A0E160D08DE253
:1028300020402DE982F6FFEB2040BDE80060A0E3D8
:102840000070A0E30080A0E300B0A0E30710C1E3A4
:1028500005C0A0E1C009ACE8C009ACE8C009ACE81B
:10286000C009ACE801D0A0E11EFF2FE110B50400C3
:10287000C046C0462000FDF7DBFC10BC08BC184772
:1028800000009FE51EFF2FE1DC36004001C08FE213
:102890001CFF2FE101491820ABDFFEE726000200F4
:1028A0001EFF2FE17847C0460020B0E3203171E0E1
:1028B00077FFFF3AA03271E06CFFFF3A203471E0FD
:1028C00061FFFF3A00C0A0E380FFFFEA7847C046FF
:1028D0006C019FE5000090E500E090E564019FE554
:1028E0000200BEE8001080E50100BEE800F06FE1E4
:1028F000FF7FDEE80000A0E13CE09EE504F05EE240
:10290000000000EF1EFF2FE104E08EE201002DE940
:1029100000204DE90000A0E104D04DE20100BDE837
:10292000004020E900E0A0E10100BDE8FF7F4EE9A2
:102930000000A0E13CE04EE200004FE101002EE982
:1029400000019FE5000090E501002EE9F0009FE501
:10295000001090E500E081E5EC009FE50FE0A0E1CC
:1029600010FF2FE1D8009FE5000090E500E090E522
:10297000D0009FE50200BEE8001080E50100BEE83F
:1029800000F06FE1FF7FDEE80000A0E13CE09EE5A3
:1029900004F05EE201002DE900204DE90000A0E115
:1029A00004D04DE20100BDE8004020E900E0A0E1D4
:1029B0000100BDE8FF7F4EE90000A0E13CE04EE2EF
:1029C00000004FE101002EE978009FE5000090E54E
:1029D00001002EE968009FE5001090E500E081E528
:1029E00068009FE50FE0A0E110FF2FE1000050E339
:1029F0000200000A50009FE50FE0A0E110FF2FE168
:102A00000100A0E348109FE5000081E544009FE538
:102A1000000080E528009FE5000090E500E090E5DB
:102A200020009FE50200BEE8001080E50100BEE83E
:102A300000F06FE1FF7FDEE80000A0E13CE09EE5F2
:102A400004F05EE2D80000401C010040DB100000F2
:102A5000BF0C0000004000E030F0FFFF7847C046A8
:102A6000A6FFFFEA7847C04600000FE1801080E330
:102A700001F021E1800000E21EFF2FE17847C0460F
:102A800000000FE18000C0E300F021E11EFF2FE114
:102A9000B02A00000000004038010000480100009A
:102AA000402B000038010040283C0000A401000039
:102AB0001122102211131201131301131401131503
:102AC00001131601131701131801131901131A0129
:102AD000131B01131D01131E010031191F010110E9
:102AE000010111010112010113010114010115017C
:102AF000011601011701011801011901011A010153
:102B00001B01011D01011E01011F011EE813627559
:102B100074746F6E206F6E652069732068696768D2
:102B2000148C6C6F7728FC74776F28591449280629
:102B300053526561647903120F2763F83300000074
:0400000500000104F2
:00000001FF
